:020000040000FA
:100000000C9461000C947E000C947E000C947E0095
:100010000C947E000C947E000C947E000C947E0068
:100020000C947E000C947E000C947E000C947E0058
:100030000C947E000C947E000C947E000C947E0048
:100040000C94AD030C947E000C947E000C947E0006
:100050000C947E000C947E000C947E000C947E0028
:100060000C947E000C947E00000000002400270009
:100070002A0000000000250028002B0000000000DE
:1000800023002600290004040404040404040202DA
:100090000202020203030303030301020408102007
:1000A0004080010204081020010204081020000012
:1000B0000008000201000003040700000000000027
:1000C000000011241FBECFEFD8E0DEBFCDBF11E08E
:1000D000A0E0B1E0E8EEFAE002C005900D92AA328D
:1000E000B107D9F721E0AAE2B1E001C01D92AB331C
:1000F000B207E1F70E94F7030C9472050C9400001C
:10010000833081F028F4813099F08230A9F008958D
:100110008730A9F08830C9F08430B1F48091800034
:100120008F7D03C0809180008F7780938000089539
:1001300084B58F7784BD089584B58F7DFBCF809182
:10014000B0008F778093B00008958091B0008F7DCC
:10015000F9CFCF93DF93282F30E0F901E255FF4F1D
:100160008491F901E656FF4FD491F901EA57FF4F08
:10017000C491CC23A1F081110E948000EC2FF0E00B
:10018000EE0FFF1FE458FF4FA591B491EC91ED23C2
:1001900081E090E009F480E0DF91CF91089580E064
:1001A00090E0FACF1F93CF93DF93282F30E0F9012F
:1001B000E255FF4F8491F901E656FF4FD491F901C2
:1001C000EA57FF4FC491CC23A9F0162F81110E944A
:1001D0008000EC2FF0E0EE0FFF1FEE58FF4FA591CF
:1001E000B4918FB7F894EC91111108C0D095DE232B
:1001F000DC938FBFDF91CF911F910895DE2BF8CF55
:10020000CF93DF9390E0FC01E656FF4F24918A578D
:100210009F4FFC0184918823D1F090E0880F991FB3
:10022000FC01E859FF4FA591B491FC01EE58FF4F36
:10023000C591D49161110EC09FB7F8948C91E22FB3
:10024000E0958E238C932881E223E8839FBFDF9182
:10025000CF9108958FB7F894EC91E22BEC938FBF78
:10026000F6CF80E10E94A900892B19F486E68093DD
:10027000000181E10E94A900892B19F482E7809393
:10028000000182E10E94A900892B19F482E6809383
:10029000000183E10E94A900892B19F48CE6809368
:1002A00000010895CF93DF93C9E1D1E088812296C0
:1002B00060E00E94D20081E0C932D807B9F7DF912F
:1002C000CF910895CF93DF93C9E0D1E08881229642
:1002D00061E00E94D20081E0C931D807B9F7DF910F
:1002E000CF9108950F931F93CF93DF938C01EB0170
:1002F0000E9462010E945201000F111FF801E75E87
:10030000FE4F61E080810E94D200CC0FDD1FC75FED
:10031000DE4F60E08881DF91CF911F910F910C94A7
:10032000D2006091030170910401809101019091CC
:1003300002010C947201CF92DF92EF92FF920E9421
:10034000B70427E0C22ED12CE12CF12CA701960195
:100350000E940F0570930201609301010E94B7048F
:10036000A70196010E940F05709304016093030199
:10037000FF90EF90DF90CF9008950F931F9380919F
:100380002E0190912F01883091050CF06DC02091C5
:100390000101309102018217930769F42091300125
:1003A00030913101809103019091040128173907A0
:1003B00011F40E949B010E9491010E9431018091E1
:1003C0000001823751F0863611F40E942F0380918C
:1003D0000001823611F40E94370260913001709161
:1003E000310180912E0190912F010E9472018FB7EF
:1003F000F894409137015091380160913901709122
:100400003A018FBF80912A0190912B01A0912C017C
:10041000B0912D018A019B01081B190B2A0B3B0B84
:10042000D901C8018C329140A105B10588F08091B5
:100430002E0190912F01019690932F0180932E0110
:1004400040932A0150932B0160932C0170932D014E
:1004500080912E0190912F01089709F090CF109272
:100460002F0110922E018BCF1F910F9108950F93A2
:100470001F938091300190913101883091050CF0EB
:100480006DC040912E0150912F01209101013091BA
:1004900002014217530749F42091030130910401EE
:1004A0008217930711F40E949B010E9491010E9400
:1004B000310180910001823651F0823711F40E949F
:1004C000BD01809100018C3611F40E94B10260914F
:1004D00030017091310180912E0190912F010E9485
:1004E00072018FB7F89440913701509138016091B3
:1004F000390170913A018FBF80912A0190912B01AF
:10050000A0912C01B0912D018A019B01081B190BB0
:100510002A0B3B0BD901C8018C329140A105B105D2
:1005200088F08091300190913101019690933101D2
:100530008093300140932A0150932B0160932C014A
:1005400070932D018091300190913101089709F04D
:1005500090CF10923101109230018BCF1F910F91EB
:1005600008950F931F93CF93DF93C7E0D0E080915E
:100570002E0190912F0197FD6DC0209101013091C6
:1005800002018217930769F4209130013091310103
:1005900080910301909104012817390711F40E94FA
:1005A0009B010E9491010E943101809100018C36D3
:1005B00051F0863611F40E942F038091000182369B
:1005C00011F40E94370260913001709131018091E5
:1005D0002E0190912F010E9472018FB7F8944091E3
:1005E0003701509138016091390170913A018FBF04
:1005F00080912A0190912B01A0912C01B0912D01A5
:100600008A019B01081B190B2A0B3B0BD901C8015E
:100610008C329140A105B10588F080912E01909116
:100620002F01019790932F0180932E0140932A016F
:1006300050932B0160932C0170932D0180912E011A
:1006400090912F01019609F092CFD0932F01C09382
:100650002E018DCFDF91CF911F910F9108950F93B0
:100660001F93CF93DF93C7E0D0E08091300190914A
:10067000310197FD6DC040912E0150912F012091C5
:100680000101309102014217530749F420910301FF
:10069000309104018217930711F40E949B010E947C
:1006A00091010E94310180910001863651F082371C
:1006B00011F40E94BD01809100018C3611F40E945A
:1006C000B102609130017091310180912E019091C1
:1006D0002F010E9472018FB7F89440913701509119
:1006E00038016091390170913A018FBF80912A01E0
:1006F00090912B01A0912C01B0912D018A019B01B9
:10070000081B190B2A0B3B0BD901C8018C329140F5
:10071000A105B10588F080913001909131010197D8
:10072000909331018093300140932A0150932B0123
:1007300060932C0170932D018091300190913101D3
:10074000019609F092CFD0933101C09330018DCF43
:10075000DF91CF911F910F9108951F920F920FB6C5
:100760000F9211242F933F938F939F93AF93BF9337
:100770008091370190913801A0913901B0913A01EF
:100780003091360123E0230F2D3758F50196A11D36
:10079000B11D209336018093370190933801A093C7
:1007A0003901B0933A018091320190913301A091C7
:1007B0003401B09135010196A11DB11D8093320124
:1007C00090933301A0933401B0933501BF91AF9161
:1007D0009F918F913F912F910F900FBE0F901F907F
:1007E000189526E8230F0296A11DB11DD2CF78944B
:1007F00084B5826084BD84B5816084BD85B5826026
:1008000085BD85B5816085BD80916E0081608093D6
:100810006E0010928100809181008260809381003F
:10082000809181008160809381008091800081604F
:10083000809380008091B10084608093B1008091AA
:10084000B00081608093B00080917A0084608093D2
:100850007A0080917A00826080937A0080917A0099
:10086000816080937A0080917A00806880937A001A
:100870001092C100C9E1D1E009E011E0888122961F
:1008800061E00E940001F80180810E5F1F4F61E06E
:100890000E940001F1E0C932DF0781F760E080E1EA
:1008A0000E94000160E081E10E94000160E082E1BD
:1008B0000E94000160E083E10E9400010E94520159
:1008C0000E946201C0E0D0E00E94BD012097E1F3E8
:1008D0000E940000F9CF8F929F92AF92BF92CF9269
:1008E000DF92EF92FF92CF93DF93EC0168817981E1
:1008F0008A819B81611571058105910521F464E26E
:1009000079ED8BE597E02DE133EF41E050E00E9477
:100910000F0549015A019B01AC01A7EAB1E40E940D
:100920002E056B017C01ACEEB4EFA50194010E9491
:100930003C05C60ED71EE81EF91EF7FE06C081E074
:10094000C81AD108E10880E8F80AC882D982EA8288
:10095000FB82C701B6019F77DF91CF91FF90EF90A7
:10096000DF90CF90BF90AF909F908F9008958F921F
:100970009F92AF92BF92CF92DF92EF92FF926091DF
:1009800005017091060180910701909108016115A0
:1009900071058105910521F464E279ED8BE597E01D
:1009A0002DE133EF41E050E00E940F0549015A016B
:1009B0009B01AC01A7EAB1E40E942E056B017C010A
:1009C000ACEEB4EFA50194010E943C05C60ED71E03
:1009D000E81EF91EF7FE06C081E0C81AD108E1083A
:1009E00080E8F80AC0920501D0920601E092070162
:1009F000F0920801C701B6019F77FF90EF90DF905A
:100A0000CF90BF90AF909F908F9008956093050115
:100A10007093060180930701909308010895052EB5
:100A200097FB1EF400940E94260557FD07D00E94F4
:100A3000410507FC03D04EF40C94260550954095D3
:100A4000309521953F4F4F4F5F4F0895909580957A
:100A5000709561957F4F8F4F9F4F08950E9463055A
:100A6000A59F900DB49F900DA49F800D911D112402
:100A70000895B7FF0C942E050E942E05821B930B40
:100A80000895A1E21A2EAA1BBB1BFD010DC0AA1FCF
:100A9000BB1FEE1FFF1FA217B307E407F50720F0E7
:100AA000A21BB30BE40BF50B661F771F881F991F62
:100AB0001A9469F760957095809590959B01AC01AB
:100AC000BD01CF010895A29FB001B39FC001A39FB4
:100AD000700D811D1124911DB29F700D811D112477
:100AE000911D0895F894FFCF7204000400010000E6
:100AF00000080009000A000B000C000D000E000F9A
:100B000000000001000200030004000500060007C9
:020B10000000E3
:107E0000112484B714BE81FFF0D085E080938100F7
:107E100082E08093C00088E18093C10086E0809377
:107E2000C20080E18093C4008EE0C9D0259A86E02C
:107E300020E33CEF91E0309385002093840096BBD3
:107E4000B09BFECF1D9AA8958150A9F7CC24DD24C4
:107E500088248394B5E0AB2EA1E19A2EF3E0BF2EE7
:107E6000A2D0813461F49FD0082FAFD0023811F036
:107E7000013811F484E001C083E08DD089C08234E0
:107E800011F484E103C0853419F485E0A6D080C0E4
:107E9000853579F488D0E82EFF2485D0082F10E0AE
:107EA000102F00270E291F29000F111F8ED06801E7
:107EB0006FC0863521F484E090D080E0DECF843638
:107EC00009F040C070D06FD0082F6DD080E0C81688
:107ED00080E7D80618F4F601B7BEE895C0E0D1E017
:107EE00062D089930C17E1F7F0E0CF16F0E7DF06D8
:107EF00018F0F601B7BEE89568D007B600FCFDCFD4
:107F0000A601A0E0B1E02C9130E011968C91119780
:107F100090E0982F8827822B932B1296FA010C0160
:107F200087BEE89511244E5F5F4FF1E0A038BF0790
:107F300051F7F601A7BEE89507B600FCFDCF97BE46
:107F4000E89526C08437B1F42ED02DD0F82E2BD052
:107F50003CD0F601EF2C8F010F5F1F4F84911BD097
:107F6000EA94F801C1F70894C11CD11CFA94CF0C13
:107F7000D11C0EC0853739F428D08EE10CD085E9AC
:107F80000AD08FE07ACF813511F488E018D01DD067
:107F900080E101D065CF982F8091C00085FFFCCF94
:107FA0009093C60008958091C00087FFFCCF809118
:107FB000C00084FD01C0A8958091C6000895E0E648
:107FC000F0E098E1908380830895EDDF803219F02E
:107FD00088E0F5DFFFCF84E1DECF1F93182FE3DFCA
:107FE0001150E9F7F2DF1F91089580E0E8DFEE27F6
:047FF000FF270994CA
:027FFE00040479
:00000001FF
