:100000000C9461000C947E000C947E000C947E0095
:100010000C947E000C947E000C947E000C947E0068
:100020000C947E000C947E000C947E000C947E0058
:100030000C947E000C947E000C947E000C947E0048
:100040000C94CC020C947E000C947E000C947E00E8
:100050000C947E000C947E000C947E000C947E0028
:100060000C947E000C947E00000000002400270009
:100070002A0000000000250028002B0000000000DE
:1000800023002600290004040404040404040202DA
:100090000202020203030303030301020408102007
:1000A0004080010204081020010204081020000012
:1000B0000008000201000003040700000000000027
:1000C000000011241FBECFEFD8E0DEBFCDBF11E08E
:1000D000A0E0B1E0E8E1F7E002C005900D92A232A5
:1000E000B107D9F721E0A2E2B1E001C01D92AF3221
:1000F000B207E1F70E9416030C948A030C940000E7
:10010000833081F028F4813099F08230A9F008958D
:100110008730A9F08830C9F08430B1F48091800034
:100120008F7D03C0809180008F7780938000089539
:1001300084B58F7784BD089584B58F7DFBCF809182
:10014000B0008F778093B00008958091B0008F7DCC
:10015000F9CFCF93DF93282F30E0F901E255FF4F1D
:100160008491F901E656FF4FD491F901EA57FF4F08
:10017000C491CC23A1F081110E948000EC2FF0E00B
:10018000EE0FFF1FE458FF4FA591B491EC91ED23C2
:1001900081E090E009F480E0DF91CF91089580E064
:1001A00090E0FACF1F93CF93DF93282F30E0F9012F
:1001B000E255FF4F8491F901E656FF4FD491F901C2
:1001C000EA57FF4FC491CC23A9F0162F81110E944A
:1001D0008000EC2FF0E0EE0FFF1FEE58FF4FA591CF
:1001E000B4918FB7F894EC91111108C0D095DE232B
:1001F000DC938FBFDF91CF911F910895DE2BF8CF55
:10020000CF93DF9390E0FC01E656FF4F24918A578D
:100210009F4FFC0184918823D1F090E0880F991FB3
:10022000FC01E859FF4FA591B491FC01EE58FF4F36
:10023000C591D49161110EC09FB7F8948C91E22FB3
:10024000E0958E238C932881E223E8839FBFDF9182
:10025000CF9108958FB7F894EC91E22BEC938FBF78
:10026000F6CF3FB7F89480912B0190912C01A0918B
:100270002D01B0912E0126B5A89B05C02F3F19F086
:100280000196A11DB11D3FBFBA2FA92F982F882716
:10029000BC01CD01620F711D811D911D42E0660FF1
:1002A000771F881F991F4A95D1F708958F929F92C3
:1002B000AF92BF92CF92DF92EF92FF920E943101F4
:1002C0004B015C018CE2C82EDD24D394E12CF12C8F
:1002D0000E943101681979098A099B09683E7340B7
:1002E00081059105A8F321E0C21AD108E108F108BF
:1002F00088EE880E83E0981EA11CB11CC114D104A5
:10030000E104F10429F7FF90EF90DF90CF90BF90C8
:10031000AF909F908F90089580E10E94A900892B53
:1003200019F486E68093000181E10E94A900892BDF
:1003300019F482E78093000182E10E94A900892BD1
:1003400019F482E68093000183E10E94A900892BC1
:1003500019F48CE6809300010895CF93DF93C1E1F7
:10036000D1E08881229660E00E94D20081E0C13213
:10037000D807B9F7DF91CF910895CF93DF93C1E00C
:10038000D1E08881229661E00E94D20081E0C131F3
:10039000D807B9F7DF91CF9108950F931F93CF93AB
:1003A000DF938C01EB010E94BD010E94AD01000FA3
:1003B000111FF801EF5EFE4F61E080810E94D200C4
:1003C000CC0FDD1FCF5FDE4F60E08881DF91CF91E2
:1003D0001F910F910C94D200CF93DF938091220153
:1003E0009091230108975CF50E948C018091000197
:1003F000823751F0863611F40E94920280910001FA
:10040000823611F40E942202C0912201D091230170
:100410006091240170912501CE010E94CD012196A9
:10042000C830D10539F0D0932301C09322010E9436
:100430005601D4CF1092230110922201F8CFDF9100
:10044000CF910895CF93DF9380912401909125015E
:1004500008975CF50E948C0180910001823651F072
:10046000823711F40E94EC01809100018C3611F466
:100470000E945802C0912401D0912501BE018091B3
:100480002201909123010E94CD012196C830D1050F
:1004900039F0D0932501C09324010E945601D4CF96
:1004A0001092250110922401F8CFDF91CF91089589
:1004B0000F931F93CF93DF9307E010E08091220109
:1004C0009091230197FD29C00E948C018091000129
:1004D0008C3651F0863611F40E9492028091000110
:1004E000823611F40E942202C0912201D091230190
:1004F0006091240170912501CE010E94CD012197C8
:1005000038F0D0932301C09322010E945601D6CF28
:100510001093230100932201F8CFDF91CF911F9117
:100520000F9108950F931F93CF93DF9307E010E08F
:10053000809124019091250197FD29C00E948C0192
:1005400080910001863651F0823711F40E94EC014F
:10055000809100018C3611F40E945802C091240150
:10056000D0912501BE0180912201909123010E942A
:10057000CD01219738F0D0932501C09324010E942A
:100580005601D6CF1093250100932401F8CFDF91B7
:10059000CF911F910F9108951F920F920FB60F9256
:1005A00011242F933F938F939F93AF93BF93809189
:1005B000270190912801A0912901B0912A01309141
:1005C000260123E0230F2D3758F50196A11DB11DFB
:1005D000209326018093270190932801A09329015D
:1005E000B0932A0180912B0190912C01A0912D01B3
:1005F000B0912E010196A11DB11D80932B01909306
:100600002C01A0932D01B0932E01BF91AF919F912A
:100610008F913F912F910F900FBE0F901F901895C3
:1006200026E8230F0296A11DB11DD2CF789484B580
:10063000826084BD84B5816084BD85B5826085BDDE
:1006400085B5816085BD80916E00816080936E006C
:10065000109281008091810082608093810080915E
:10066000810081608093810080918000816080930F
:1006700080008091B10084608093B1008091B000CF
:1006800081608093B00080917A00846080937A00CA
:1006900080917A00826080937A0080917A008160F4
:1006A00080937A0080917A00806880937A0010921B
:1006B000C100C1E1D1E001E011E08881229661E052
:1006C0000E940001F80180810E5F1F4F61E00E94CF
:1006D0000001F1E0C132DF0781F760E080E10E94B4
:1006E000000160E081E10E94000160E082E10E947F
:1006F000000160E083E10E9400010E94AD010E94C0
:10070000BD01C0E0D0E00E94EC012097E1F30E941F
:080710000000F9CFF894FFCFBF
:1007180072080009000A000B000C000D000E000F03
:1007280000000001000200030004000500060007A5
:020738000000BF
:00000001FF
