:100000000C9461000C947E000C947E000C947E0095
:100010000C947E000C947E000C947E000C947E0068
:100020000C947E000C947E000C947E000C947E0058
:100030000C947E000C947E000C947E000C947E0048
:100040000C946E040C947E000C947E000C947E0044
:100050000C947E000C947E000C947E000C947E0028
:100060000C947E000C947E00000000002400270009
:100070002A0000000000250028002B0000000000DE
:1000800023002600290004040404040404040202DA
:100090000202020203030303030301020408102007
:1000A0004080010204081020010204081020000012
:1000B0000008000201000003040700000000000027
:1000C000000011241FBECFEFD8E0DEBFCDBF11E08E
:1000D000A0E0B1E0EAE6FCE002C005900D92AC328F
:1000E000B107D9F721E0ACE2B1E001C01D92AD3813
:1000F000B207E1F70E94B8040C9433060C94000098
:10010000833081F028F4813099F08230A9F008958D
:100110008730A9F08830C9F08430B1F48091800034
:100120008F7D03C0809180008F7780938000089539
:1001300084B58F7784BD089584B58F7DFBCF809182
:10014000B0008F778093B00008958091B0008F7DCC
:10015000F9CFCF93DF93282F30E0F901E255FF4F1D
:100160008491F901E656FF4FD491F901EA57FF4F08
:10017000C491CC23A1F081110E948000EC2FF0E00B
:10018000EE0FFF1FE458FF4FA591B491EC91ED23C2
:1001900081E090E009F480E0DF91CF91089580E064
:1001A00090E0FACF1F93CF93DF93282F30E0F9012F
:1001B000E255FF4F8491F901E656FF4FD491F901C2
:1001C000EA57FF4FC491CC23A9F0162F81110E944A
:1001D0008000EC2FF0E0EE0FFF1FEE58FF4FA591CF
:1001E000B4918FB7F894EC91111108C0D095DE232B
:1001F000DC938FBFDF91CF911F910895DE2BF8CF55
:10020000CF93DF9390E0FC01E656FF4F24918A578D
:100210009F4FFC0184918823D1F090E0880F991FB3
:10022000FC01E859FF4FA591B491FC01EE58FF4F36
:10023000C591D49161110EC09FB7F8948C91E22FB3
:10024000E0958E238C932881E223E8839FBFDF9182
:10025000CF9108958FB7F894EC91E22BEC938FBF78
:10026000F6CF3FB7F8948091890190918A01A091CF
:100270008B01B0918C0126B5A89B05C02F3F19F0CA
:100280000196A11DB11D3FBFBA2FA92F982F882716
:10029000BC01CD01620F711D811D911D42E0660FF1
:1002A000771F881F991F4A95D1F7089580E10E9412
:1002B000A900892B19F486E68093020181E10E944E
:1002C000A900892B19F482E78093020182E10E9440
:1002D000A900892B19F482E68093020183E10E9430
:1002E000A900892B19F48CE6809302010895CF931D
:1002F000DF93CBE1D1E08881229660E00E94D200BA
:1003000081E0CB32D807B9F7DF91CF910895CF9331
:10031000DF93CBE0D1E08881229661E00E94D20099
:1003200081E0CB31D807B9F7DF91CF9108958F9253
:100330009F92AF92BF92CF92DF92EF92FF920F9374
:100340001F93CF93DF938C01EB010E9487010E94E2
:100350007701000F111FF801E55EFE4F61E080811B
:100360000E94D200CC0FDD1FC55FDE4F60E08881A8
:100370000E94D2000E9431014B015C012AE0C22E92
:10038000D12CE12CF12C0E943101681979098A09DC
:100390009B09683E734081059105A8F321E0C21ACC
:1003A000D108E108F10888EE880E83E0981EA11CB0
:1003B000B11CC114D104E104F10429F7DF91CF91FC
:1003C0001F910F91FF90EF90DF90CF90BF90AF9073
:1003D0009F908F9008956091050170910601809122
:1003E0000301909104010C949701CF92DF92EF9258
:1003F000FF920E94780527E0C22ED12CE12CF12C2F
:10040000A70196010E94D005709304016093030137
:100410000E947805A70196010E94D00570930601FD
:1004200060930501FF90EF90DF90CF900895CF92F9
:10043000DF92EF92FF920F931F93CF93DF93809100
:10044000800190918101883091050CF0B6C0209117
:1004500003013091040182179307B1F420918201C6
:100460003091830180910501909106012817390789
:1004700059F40E94F50180910001909101010196CB
:1004800090930101809300010E94EB010E945601AC
:1004900080910201823751F0863611F40E94F003F8
:1004A00080910201823611F40E94E602009100015F
:1004B00010910101C801F801EE0FFF1FDF01AC5AD6
:1004C000BE4FE45DFE4F019712973297181619063A
:1004D00074F4ED0122972881398111963C932E9373
:1004E000EF0122972881398131832083ECCF8091DD
:1004F00080019091810190935501809354018091E6
:1005000082019091830190932D0180932C018CE2C4
:10051000C82E81E0D82E94E5E92E91E0F92ED0E0A6
:10052000C0E0C017D10764F4F601619171916F01C9
:10053000F701819191917F010E9497012196F1CF5E
:100540008FB7F894409185015091860160918701A1
:10055000709188018FBF80917C0190917D01A09165
:100560007E01B0917F018A019B01081B190B2A0BA8
:100570003B0BD901C8018C329140A105B10588F02F
:1005800080918001909181010196909381018093E7
:10059000800140937C0150937D0160937E017093B4
:1005A0007F018091800190918101089709F047CFE8
:1005B000109281011092800142CFDF91CF911F9163
:1005C0000F91FF90EF90DF90CF9008950F931F93BE
:1005D0008091820190918301883091050CF076C062
:1005E00040918001509181012091030130910401DB
:1005F0004217530791F420910501309106018217AB
:10060000930759F40E94F501809100019091010136
:10061000019690930101809300010E94EB010E94DA
:10062000560180910201823651F0823711F40E9406
:100630001702809102018C3611F40E9469036091C7
:1006400082017091830180918001909181010E94CB
:1006500097018FB7F8944091850150918601609180
:100660008701709188018FBF80917C0190917D01FD
:10067000A0917E01B0917F018A019B01081B190B9B
:100680002A0B3B0BD901C8018C329140A105B10561
:1006900088F080918201909183010196909383016B
:1006A0008093820140937C0150937D0160937E0191
:1006B00070937F018091820190918301089709F0E6
:1006C00087CF109283011092820182CF1F910F91E8
:1006D00008950F931F93CF93DF93C7E0D0E08091ED
:1006E00080019091810197FD76C0209103013091A6
:1006F000040182179307B1F42091820130918301A4
:1007000080910501909106012817390759F40E943C
:10071000F5018091000190910101019690930101F2
:10072000809300010E94EB010E945601809102011A
:100730008C3651F0863611F40E94F003809102014C
:10074000823611F40E94E602609182017091830169
:1007500080918001909181010E9497018FB7F89458
:1007600040918501509186016091870170918801C7
:100770008FBF80917C0190917D01A0917E01B0910D
:100780007F018A019B01081B190B2A0B3B0BD90126
:10079000C8018C329140A105B10588F0809180019B
:1007A0009091810101979093810180938001409302
:1007B0007C0150937D0160937E0170937F01809155
:1007C000800190918101019609F089CFD093810138
:1007D000C093800184CFDF91CF911F910F91089535
:1007E0000F931F93CF93DF93C7E0D0E080918201F6
:1007F0009091830197FD6DC04091800150918101DE
:1008000020910301309104014217530749F42091CC
:100810000501309106018217930711F40E94F5013A
:100820000E94EB010E94560180910201863651F030
:10083000823711F40E941702809102018C3611F464
:100840000E9469036091820170918301809180010F
:10085000909181010E9497018FB7F8944091850192
:100860005091860160918701709188018FBF8091BE
:100870007C0190917D01A0917E01B0917F018A0160
:100880009B01081B190B2A0B3B0BD901C8018C32A9
:100890009140A105B10588F080918201909183017A
:1008A0000197909383018093820140937C01509340
:1008B0007D0160937E0170937F0180918201909110
:1008C0008301019609F092CFD0938301C0938201F6
:1008D0008DCFDF91CF911F910F9108951F920F92AD
:1008E0000FB60F9211242F933F938F939F93AF9343
:1008F000BF938091850190918601A0918701B0916D
:1009000088013091840123E0230F2D3758F501969B
:10091000A11DB11D209384018093850190938601D0
:10092000A0938701B09388018091890190918A01F9
:10093000A0918B01B0918C010196A11DB11D8093F6
:10094000890190938A01A0938B01B0938C01BF9190
:10095000AF919F918F913F912F910F900FBE0F906C
:100960001F90189526E8230F0296A11DB11DD2CF26
:10097000789484B5826084BD84B5816084BD85B57A
:10098000826085BD85B5816085BD80916E00816086
:1009900080936E001092810080918100826080932C
:1009A000810080918100816080938100809180002E
:1009B0008160809380008091B10084608093B10059
:1009C0008091B00081608093B00080917A00846053
:1009D00080937A0080917A00826080937A0080917F
:1009E0007A00816080937A0080917A008068809399
:1009F0007A001092C100CBE1D1E00BE011E08881D8
:100A0000229661E00E940001F80180810E5F1F4F75
:100A100061E00E940001F1E0CB32DF0781F760E086
:100A200080E10E94000160E081E10E94000160E03D
:100A300082E10E94000160E083E10E9400010E94C7
:100A400077010E948701C0E0D0E00E941702209742
:100A5000E1F30E940000F9CF8F929F92AF92BF9274
:100A6000CF92DF92EF92FF92CF93DF93EC016881F8
:100A700079818A819B81611571058105910521F438
:100A800064E279ED8BE597E02DE133EF41E050E052
:100A90000E94D00549015A019B01AC01A7EAB1E4CB
:100AA0000E94EF056B017C01ACEEB4EFA50194014F
:100AB0000E94FD05C60ED71EE81EF91EF7FE06C0F1
:100AC00081E0C81AD108E10880E8F80AC882D98212
:100AD000EA82FB82C701B6019F77DF91CF91FF9039
:100AE000EF90DF90CF90BF90AF909F908F90089540
:100AF0008F929F92AF92BF92CF92DF92EF92FF922E
:100B000060910701709108018091090190910A019B
:100B1000611571058105910521F464E279ED8BE59C
:100B200097E02DE133EF41E050E00E94D00549010C
:100B30005A019B01AC01A7EAB1E40E94EF056B01E9
:100B40007C01ACEEB4EFA50194010E94FD05C60E38
:100B5000D71EE81EF91EF7FE06C081E0C81AD108AC
:100B6000E10880E8F80AC0920701D0920801E092FB
:100B70000901F0920A01C701B6019F77FF90EF903B
:100B8000DF90CF90BF90AF909F908F90089560932B
:100B90000701709308018093090190930A01089559
:100BA000052E97FB1EF400940E94E70557FD07D021
:100BB0000E94020607FC03D04EF40C94E705509502
:100BC0004095309521953F4F4F4F5F4F0895909539
:100BD0008095709561957F4F8F4F9F4F08950E942C
:100BE0002406A59F900DB49F900DA49F800D911D8C
:100BF00011240895B7FF0C94EF050E94EF05821BA6
:100C0000930B0895A1E21A2EAA1BBB1BFD010DC078
:100C1000AA1FBB1FEE1FFF1FA217B307E407F507AC
:100C200020F0A21BB30BE40BF50B661F771F881F88
:100C3000991F1A9469F760957095809590959B011E
:100C4000AC01BD01CF010895A29FB001B39FC001C7
:100C5000A39F700D811D1124911DB29F700D811DE8
:0A0C60001124911D0895F894FFCFB0
:100C6A000100720400040001000000080009000AE3
:100C7A00000B000C000D000E000F00000001000226
:0C0C8A0000030004000500060007000045
:00000001FF
